{
  "_format": "hh-sol-artifact-1",
  "contractName": "EtherWallet",
  "sourceName": "contracts/EtherWallet.sol",
  "abi": [
    {
      "inputs": [],
      "stateMutability": "payable",
      "type": "constructor"
    },
    {
      "inputs": [],
      "name": "deposit",
      "outputs": [],
      "stateMutability": "payable",
      "type": "function"
    },
    {
      "inputs": [],
      "name": "getBalanceContract",
      "outputs": [
        {
          "internalType": "uint256",
          "name": "",
          "type": "uint256"
        }
      ],
      "stateMutability": "view",
      "type": "function"
    },
    {
      "inputs": [],
      "name": "getBalanceUser",
      "outputs": [
        {
          "internalType": "uint256",
          "name": "",
          "type": "uint256"
        }
      ],
      "stateMutability": "view",
      "type": "function"
    },
    {
      "inputs": [],
      "name": "owner",
      "outputs": [
        {
          "internalType": "address",
          "name": "",
          "type": "address"
        }
      ],
      "stateMutability": "view",
      "type": "function"
    },
    {
      "inputs": [
        {
          "internalType": "uint256",
          "name": "_amount",
          "type": "uint256"
        }
      ],
      "name": "withdraw",
      "outputs": [],
      "stateMutability": "nonpayable",
      "type": "function"
    },
    {
      "stateMutability": "payable",
      "type": "receive"
    }
  ],
  "bytecode": "0x6080604052336000806101000a81548173ffffffffffffffffffffffffffffffffffffffff021916908373ffffffffffffffffffffffffffffffffffffffff160217905550610483806100536000396000f3fe60806040526004361061004e5760003560e01c80632e1a7d4d1461005a57806331dacf771461008357806366bd78fd146100ae5780638da5cb5b146100d9578063d0e30db01461010457610055565b3661005557005b600080fd5b34801561006657600080fd5b50610081600480360381019061007c91906102b1565b61010e565b005b34801561008f57600080fd5b50610098610229565b6040516100a591906102ed565b60405180910390f35b3480156100ba57600080fd5b506100c3610248565b6040516100d091906102ed565b60405180910390f35b3480156100e557600080fd5b506100ee610250565b6040516100fb9190610349565b60405180910390f35b61010c610274565b005b60008054906101000a900473ffffffffffffffffffffffffffffffffffffffff1673ffffffffffffffffffffffffffffffffffffffff163373ffffffffffffffffffffffffffffffffffffffff161461019c576040517f08c379a0000000000000000000000000000000000000000000000000000000008152600401610193906103c1565b60405180910390fd5b478111156101df576040517f08c379a00000000000000000000000000000000000000000000000000000000081526004016101d69061042d565b60405180910390fd5b3373ffffffffffffffffffffffffffffffffffffffff166108fc829081150290604051600060405180830381858888f19350505050158015610225573d6000803e3d6000fd5b5050565b60003373ffffffffffffffffffffffffffffffffffffffff1631905090565b600047905090565b60008054906101000a900473ffffffffffffffffffffffffffffffffffffffff1681565b565b600080fd5b6000819050919050565b61028e8161027b565b811461029957600080fd5b50565b6000813590506102ab81610285565b92915050565b6000602082840312156102c7576102c6610276565b5b60006102d58482850161029c565b91505092915050565b6102e78161027b565b82525050565b600060208201905061030260008301846102de565b92915050565b600073ffffffffffffffffffffffffffffffffffffffff82169050919050565b600061033382610308565b9050919050565b61034381610328565b82525050565b600060208201905061035e600083018461033a565b92915050565b600082825260208201905092915050565b7f63616c6c6572206973206e6f74206f776e657200000000000000000000000000600082015250565b60006103ab601383610364565b91506103b682610375565b602082019050919050565b600060208201905081810360008301526103da8161039e565b9050919050565b7f496e73756666696369656e742062616c616e6365000000000000000000000000600082015250565b6000610417601483610364565b9150610422826103e1565b602082019050919050565b600060208201905081810360008301526104468161040a565b905091905056fea26469706673582212200df68635815914636d1f072d87d6a41e5bcb6327c5c6ac6d21bd9e45d6f6b88064736f6c63430008180033",
  "linkReferences": {},
  "deployedLinkReferences": {}
}